{
  "_format": "hh-sol-artifact-1",
  "contractName": "Voting",
  "sourceName": "contracts/Voting.sol",
  "abi": [
    {
      "inputs": [
        {
          "internalType": "address",
          "name": "_paymentToken",
          "type": "address"
        },
        {
          "internalType": "uint256",
          "name": "_proposalFee",
          "type": "uint256"
        }
      ],
      "stateMutability": "nonpayable",
      "type": "constructor"
    },
    {
      "anonymous": false,
      "inputs": [
        {
          "indexed": false,
          "internalType": "uint256",
          "name": "proposalId",
          "type": "uint256"
        },
        {
          "indexed": false,
          "internalType": "string",
          "name": "title",
          "type": "string"
        },
        {
          "indexed": false,
          "internalType": "string",
          "name": "description",
          "type": "string"
        },
        {
          "indexed": false,
          "internalType": "address",
          "name": "creator",
          "type": "address"
        }
      ],
      "name": "ProposalCreated",
      "type": "event"
    },
    {
      "anonymous": false,
      "inputs": [
        {
          "indexed": false,
          "internalType": "uint256",
          "name": "proposalId",
          "type": "uint256"
        },
        {
          "indexed": false,
          "internalType": "address",
          "name": "voter",
          "type": "address"
        }
      ],
      "name": "Voted",
      "type": "event"
    },
    {
      "anonymous": false,
      "inputs": [
        {
          "indexed": false,
          "internalType": "uint256",
          "name": "proposalId",
          "type": "uint256"
        },
        {
          "indexed": false,
          "internalType": "string",
          "name": "title",
          "type": "string"
        },
        {
          "indexed": false,
          "internalType": "uint256",
          "name": "votes",
          "type": "uint256"
        }
      ],
      "name": "WinnerDeclared",
      "type": "event"
    },
    {
      "inputs": [],
      "name": "admin",
      "outputs": [
        {
          "internalType": "address",
          "name": "",
          "type": "address"
        }
      ],
      "stateMutability": "view",
      "type": "function"
    },
    {
      "inputs": [
        {
          "internalType": "string",
          "name": "_title",
          "type": "string"
        },
        {
          "internalType": "string",
          "name": "_description",
          "type": "string"
        }
      ],
      "name": "createProposal",
      "outputs": [],
      "stateMutability": "nonpayable",
      "type": "function"
    },
    {
      "inputs": [],
      "name": "declareWinner",
      "outputs": [
        {
          "internalType": "uint256",
          "name": "winnerId",
          "type": "uint256"
        },
        {
          "internalType": "string",
          "name": "title",
          "type": "string"
        },
        {
          "internalType": "uint256",
          "name": "votes",
          "type": "uint256"
        }
      ],
      "stateMutability": "view",
      "type": "function"
    },
    {
      "inputs": [],
      "name": "getProposals",
      "outputs": [
        {
          "components": [
            {
              "internalType": "string",
              "name": "title",
              "type": "string"
            },
            {
              "internalType": "string",
              "name": "description",
              "type": "string"
            },
            {
              "internalType": "uint256",
              "name": "voteCount",
              "type": "uint256"
            }
          ],
          "internalType": "struct Voting.Proposal[]",
          "name": "",
          "type": "tuple[]"
        }
      ],
      "stateMutability": "view",
      "type": "function"
    },
    {
      "inputs": [
        {
          "internalType": "uint256",
          "name": "",
          "type": "uint256"
        },
        {
          "internalType": "address",
          "name": "",
          "type": "address"
        }
      ],
      "name": "hasVoted",
      "outputs": [
        {
          "internalType": "bool",
          "name": "",
          "type": "bool"
        }
      ],
      "stateMutability": "view",
      "type": "function"
    },
    {
      "inputs": [],
      "name": "paymentToken",
      "outputs": [
        {
          "internalType": "contract IERC20",
          "name": "",
          "type": "address"
        }
      ],
      "stateMutability": "view",
      "type": "function"
    },
    {
      "inputs": [],
      "name": "proposalFee",
      "outputs": [
        {
          "internalType": "uint256",
          "name": "",
          "type": "uint256"
        }
      ],
      "stateMutability": "view",
      "type": "function"
    },
    {
      "inputs": [
        {
          "internalType": "uint256",
          "name": "",
          "type": "uint256"
        }
      ],
      "name": "proposals",
      "outputs": [
        {
          "internalType": "string",
          "name": "title",
          "type": "string"
        },
        {
          "internalType": "string",
          "name": "description",
          "type": "string"
        },
        {
          "internalType": "uint256",
          "name": "voteCount",
          "type": "uint256"
        }
      ],
      "stateMutability": "view",
      "type": "function"
    },
    {
      "inputs": [
        {
          "internalType": "uint256",
          "name": "_fee",
          "type": "uint256"
        }
      ],
      "name": "setProposalFee",
      "outputs": [],
      "stateMutability": "nonpayable",
      "type": "function"
    },
    {
      "inputs": [
        {
          "internalType": "uint256",
          "name": "_proposalId",
          "type": "uint256"
        }
      ],
      "name": "vote",
      "outputs": [],
      "stateMutability": "nonpayable",
      "type": "function"
    },
    {
      "inputs": [],
      "name": "withdrawTokens",
      "outputs": [],
      "stateMutability": "nonpayable",
      "type": "function"
    }
  ],
  "bytecode": "0x60806040523480156200001157600080fd5b50604051620020f0380380620020f08339818101604052810190620000379190620001de565b600073ffffffffffffffffffffffffffffffffffffffff168273ffffffffffffffffffffffffffffffffffffffff1603620000a9576040517f08c379a0000000000000000000000000000000000000000000000000000000008152600401620000a09062000286565b60405180910390fd5b336000806101000a81548173ffffffffffffffffffffffffffffffffffffffff021916908373ffffffffffffffffffffffffffffffffffffffff16021790555081600160006101000a81548173ffffffffffffffffffffffffffffffffffffffff021916908373ffffffffffffffffffffffffffffffffffffffff160217905550806002819055505050620002a8565b600080fd5b600073ffffffffffffffffffffffffffffffffffffffff82169050919050565b60006200016b826200013e565b9050919050565b6200017d816200015e565b81146200018957600080fd5b50565b6000815190506200019d8162000172565b92915050565b6000819050919050565b620001b881620001a3565b8114620001c457600080fd5b50565b600081519050620001d881620001ad565b92915050565b60008060408385031215620001f857620001f762000139565b5b600062000208858286016200018c565b92505060206200021b85828601620001c7565b9150509250929050565b600082825260208201905092915050565b7f496e76616c696420746f6b656e20616464726573730000000000000000000000600082015250565b60006200026e60158362000225565b91506200027b8262000236565b602082019050919050565b60006020820190508181036000830152620002a1816200025f565b9050919050565b611e3880620002b86000396000f3fe608060405234801561001057600080fd5b50600436106100a95760003560e01c80634385963211610071578063438596321461015657806362564c481461018657806365e481e2146101a45780638d8f2adb146101c0578063c27cabb5146101ca578063f851a440146101e8576100a9565b80630121b93f146100ae578063013cf08b146100ca57806310bf5068146100fc57806314034bd2146101185780633013ce2914610138575b600080fd5b6100c860048036038101906100c39190610eee565b610206565b005b6100e460048036038101906100df9190610eee565b6103cb565b6040516100f393929190610fba565b60405180910390f35b61011660048036038101906101119190610eee565b610515565b005b6101206105ad565b60405161012f93929190610fff565b60405180910390f35b6101406107e9565b60405161014d91906110bc565b60405180910390f35b610170600480360381019061016b9190611115565b61080f565b60405161017d9190611170565b60405180910390f35b61018e61083e565b60405161019b91906112fd565b60405180910390f35b6101be60048036038101906101b99190611454565b6109cb565b005b6101c8610c07565b005b6101d2610e7a565b6040516101df91906114cc565b60405180910390f35b6101f0610e80565b6040516101fd91906114f6565b60405180910390f35b600380549050811061024d576040517f08c379a00000000000000000000000000000000000000000000000000000000081526004016102449061155d565b60405180910390fd5b6004600082815260200190815260200160002060003373ffffffffffffffffffffffffffffffffffffffff1673ffffffffffffffffffffffffffffffffffffffff16815260200190815260200160002060009054906101000a900460ff16156102eb576040517f08c379a00000000000000000000000000000000000000000000000000000000081526004016102e2906115c9565b60405180910390fd5b600381815481106102ff576102fe6115e9565b5b9060005260206000209060030201600201600081548092919061032190611647565b919050555060016004600083815260200190815260200160002060003373ffffffffffffffffffffffffffffffffffffffff1673ffffffffffffffffffffffffffffffffffffffff16815260200190815260200160002060006101000a81548160ff0219169083151502179055507f030b0f8dcd86a031eddb071f91882edeac8173663ba775713b677b42b51be44b81336040516103c092919061168f565b60405180910390a150565b600381815481106103db57600080fd5b90600052602060002090600302016000915090508060000180546103fe906116e7565b80601f016020809104026020016040519081016040528092919081815260200182805461042a906116e7565b80156104775780601f1061044c57610100808354040283529160200191610477565b820191906000526020600020905b81548152906001019060200180831161045a57829003601f168201915b50505050509080600101805461048c906116e7565b80601f01602080910402602001604051908101604052809291908181526020018280546104b8906116e7565b80156105055780601f106104da57610100808354040283529160200191610505565b820191906000526020600020905b8154815290600101906020018083116104e857829003601f168201915b5050505050908060020154905083565b60008054906101000a900473ffffffffffffffffffffffffffffffffffffffff1673ffffffffffffffffffffffffffffffffffffffff163373ffffffffffffffffffffffffffffffffffffffff16146105a3576040517f08c379a000000000000000000000000000000000000000000000000000000000815260040161059a90611764565b60405180910390fd5b8060028190555050565b6000606060008060009054906101000a900473ffffffffffffffffffffffffffffffffffffffff1673ffffffffffffffffffffffffffffffffffffffff163373ffffffffffffffffffffffffffffffffffffffff1614610642576040517f08c379a000000000000000000000000000000000000000000000000000000000815260040161063990611764565b60405180910390fd5b60006003805490501161068a576040517f08c379a0000000000000000000000000000000000000000000000000000000008152600401610681906117d0565b60405180910390fd5b60008060005b6003805490508110156107035782600382815481106106b2576106b16115e9565b5b90600052602060002090600302016002015411156106f657600381815481106106de576106dd6115e9565b5b90600052602060002090600302016002015492508091505b8080600101915050610690565b508060038281548110610719576107186115e9565b5b90600052602060002090600302016000016003838154811061073e5761073d6115e9565b5b90600052602060002090600302016002015481805461075c906116e7565b80601f0160208091040260200160405190810160405280929190818152602001828054610788906116e7565b80156107d55780601f106107aa576101008083540402835291602001916107d5565b820191906000526020600020905b8154815290600101906020018083116107b857829003601f168201915b505050505091509450945094505050909192565b600160009054906101000a900473ffffffffffffffffffffffffffffffffffffffff1681565b60046020528160005260406000206020528060005260406000206000915091509054906101000a900460ff1681565b60606003805480602002602001604051908101604052809291908181526020016000905b828210156109c25783829060005260206000209060030201604051806060016040529081600082018054610895906116e7565b80601f01602080910402602001604051908101604052809291908181526020018280546108c1906116e7565b801561090e5780601f106108e35761010080835404028352916020019161090e565b820191906000526020600020905b8154815290600101906020018083116108f157829003601f168201915b50505050508152602001600182018054610927906116e7565b80601f0160208091040260200160405190810160405280929190818152602001828054610953906116e7565b80156109a05780601f10610975576101008083540402835291602001916109a0565b820191906000526020600020905b81548152906001019060200180831161098357829003601f168201915b5050505050815260200160028201548152505081526020019060010190610862565b50505050905090565b6000825111610a0f576040517f08c379a0000000000000000000000000000000000000000000000000000000008152600401610a069061183c565b60405180910390fd5b6000815111610a53576040517f08c379a0000000000000000000000000000000000000000000000000000000008152600401610a4a906118a8565b60405180910390fd5b600160009054906101000a900473ffffffffffffffffffffffffffffffffffffffff1673ffffffffffffffffffffffffffffffffffffffff166323b872dd33306002546040518463ffffffff1660e01b8152600401610ab4939291906118c8565b6020604051808303816000875af1158015610ad3573d6000803e3d6000fd5b505050506040513d601f19601f82011682018060405250810190610af7919061192b565b610b36576040517f08c379a0000000000000000000000000000000000000000000000000000000008152600401610b2d906119a4565b60405180910390fd5b60036040518060600160405280848152602001838152602001600081525090806001815401808255809150506001900390600052602060002090600302016000909190919091506000820151816000019081610b929190611b66565b506020820151816001019081610ba89190611b66565b506040820151816002015550507ff5aabab57cdd7d0e77da8679aa7b11fbcd0b690cafe5eb948e7a31af3cdf1aa66001600380549050610be89190611c38565b838333604051610bfb9493929190611c6c565b60405180910390a15050565b60008054906101000a900473ffffffffffffffffffffffffffffffffffffffff1673ffffffffffffffffffffffffffffffffffffffff163373ffffffffffffffffffffffffffffffffffffffff1614610c95576040517f08c379a0000000000000000000000000000000000000000000000000000000008152600401610c8c90611764565b60405180910390fd5b6000600160009054906101000a900473ffffffffffffffffffffffffffffffffffffffff1673ffffffffffffffffffffffffffffffffffffffff166370a08231306040518263ffffffff1660e01b8152600401610cf291906114f6565b602060405180830381865afa158015610d0f573d6000803e3d6000fd5b505050506040513d601f19601f82011682018060405250810190610d339190611cd4565b905060008111610d78576040517f08c379a0000000000000000000000000000000000000000000000000000000008152600401610d6f90611d4d565b60405180910390fd5b600160009054906101000a900473ffffffffffffffffffffffffffffffffffffffff1673ffffffffffffffffffffffffffffffffffffffff1663a9059cbb60008054906101000a900473ffffffffffffffffffffffffffffffffffffffff16836040518363ffffffff1660e01b8152600401610df5929190611d6d565b6020604051808303816000875af1158015610e14573d6000803e3d6000fd5b505050506040513d601f19601f82011682018060405250810190610e38919061192b565b610e77576040517f08c379a0000000000000000000000000000000000000000000000000000000008152600401610e6e90611de2565b60405180910390fd5b50565b60025481565b60008054906101000a900473ffffffffffffffffffffffffffffffffffffffff1681565b6000604051905090565b600080fd5b600080fd5b6000819050919050565b610ecb81610eb8565b8114610ed657600080fd5b50565b600081359050610ee881610ec2565b92915050565b600060208284031215610f0457610f03610eae565b5b6000610f1284828501610ed9565b91505092915050565b600081519050919050565b600082825260208201905092915050565b60005b83811015610f55578082015181840152602081019050610f3a565b60008484015250505050565b6000601f19601f8301169050919050565b6000610f7d82610f1b565b610f878185610f26565b9350610f97818560208601610f37565b610fa081610f61565b840191505092915050565b610fb481610eb8565b82525050565b60006060820190508181036000830152610fd48186610f72565b90508181036020830152610fe88185610f72565b9050610ff76040830184610fab565b949350505050565b60006060820190506110146000830186610fab565b81810360208301526110268185610f72565b90506110356040830184610fab565b949350505050565b600073ffffffffffffffffffffffffffffffffffffffff82169050919050565b6000819050919050565b600061108261107d6110788461103d565b61105d565b61103d565b9050919050565b600061109482611067565b9050919050565b60006110a682611089565b9050919050565b6110b68161109b565b82525050565b60006020820190506110d160008301846110ad565b92915050565b60006110e28261103d565b9050919050565b6110f2816110d7565b81146110fd57600080fd5b50565b60008135905061110f816110e9565b92915050565b6000806040838503121561112c5761112b610eae565b5b600061113a85828601610ed9565b925050602061114b85828601611100565b9150509250929050565b60008115159050919050565b61116a81611155565b82525050565b60006020820190506111856000830184611161565b92915050565b600081519050919050565b600082825260208201905092915050565b6000819050602082019050919050565b600082825260208201905092915050565b60006111d382610f1b565b6111dd81856111b7565b93506111ed818560208601610f37565b6111f681610f61565b840191505092915050565b61120a81610eb8565b82525050565b6000606083016000830151848203600086015261122d82826111c8565b9150506020830151848203602086015261124782826111c8565b915050604083015161125c6040860182611201565b508091505092915050565b60006112738383611210565b905092915050565b6000602082019050919050565b60006112938261118b565b61129d8185611196565b9350836020820285016112af856111a7565b8060005b858110156112eb57848403895281516112cc8582611267565b94506112d78361127b565b925060208a019950506001810190506112b3565b50829750879550505050505092915050565b600060208201905081810360008301526113178184611288565b905092915050565b600080fd5b600080fd5b7f4e487b7100000000000000000000000000000000000000000000000000000000600052604160045260246000fd5b61136182610f61565b810181811067ffffffffffffffff821117156113805761137f611329565b5b80604052505050565b6000611393610ea4565b905061139f8282611358565b919050565b600067ffffffffffffffff8211156113bf576113be611329565b5b6113c882610f61565b9050602081019050919050565b82818337600083830152505050565b60006113f76113f2846113a4565b611389565b90508281526020810184848401111561141357611412611324565b5b61141e8482856113d5565b509392505050565b600082601f83011261143b5761143a61131f565b5b813561144b8482602086016113e4565b91505092915050565b6000806040838503121561146b5761146a610eae565b5b600083013567ffffffffffffffff81111561148957611488610eb3565b5b61149585828601611426565b925050602083013567ffffffffffffffff8111156114b6576114b5610eb3565b5b6114c285828601611426565b9150509250929050565b60006020820190506114e16000830184610fab565b92915050565b6114f0816110d7565b82525050565b600060208201905061150b60008301846114e7565b92915050565b7f496e76616c69642070726f706f73616c20696400000000000000000000000000600082015250565b6000611547601383610f26565b915061155282611511565b602082019050919050565b600060208201905081810360008301526115768161153a565b9050919050565b7f416c726561647920766f74656400000000000000000000000000000000000000600082015250565b60006115b3600d83610f26565b91506115be8261157d565b602082019050919050565b600060208201905081810360008301526115e2816115a6565b9050919050565b7f4e487b7100000000000000000000000000000000000000000000000000000000600052603260045260246000fd5b7f4e487b7100000000000000000000000000000000000000000000000000000000600052601160045260246000fd5b600061165282610eb8565b91507fffffffffffffffffffffffffffffffffffffffffffffffffffffffffffffffff820361168457611683611618565b5b600182019050919050565b60006040820190506116a46000830185610fab565b6116b160208301846114e7565b9392505050565b7f4e487b7100000000000000000000000000000000000000000000000000000000600052602260045260246000fd5b600060028204905060018216806116ff57607f821691505b602082108103611712576117116116b8565b5b50919050565b7f4e6f742061646d696e0000000000000000000000000000000000000000000000600082015250565b600061174e600983610f26565b915061175982611718565b602082019050919050565b6000602082019050818103600083015261177d81611741565b9050919050565b7f4e6f2070726f706f73616c730000000000000000000000000000000000000000600082015250565b60006117ba600c83610f26565b91506117c582611784565b602082019050919050565b600060208201905081810360008301526117e9816117ad565b9050919050565b7f5469746c65207265717569726564000000000000000000000000000000000000600082015250565b6000611826600e83610f26565b9150611831826117f0565b602082019050919050565b6000602082019050818103600083015261185581611819565b9050919050565b7f4465736372697074696f6e207265717569726564000000000000000000000000600082015250565b6000611892601483610f26565b915061189d8261185c565b602082019050919050565b600060208201905081810360008301526118c181611885565b9050919050565b60006060820190506118dd60008301866114e7565b6118ea60208301856114e7565b6118f76040830184610fab565b949350505050565b61190881611155565b811461191357600080fd5b50565b600081519050611925816118ff565b92915050565b60006020828403121561194157611940610eae565b5b600061194f84828501611916565b91505092915050565b7f5061796d656e74206661696c6564000000000000000000000000000000000000600082015250565b600061198e600e83610f26565b915061199982611958565b602082019050919050565b600060208201905081810360008301526119bd81611981565b9050919050565b60008190508160005260206000209050919050565b60006020601f8301049050919050565b600082821b905092915050565b600060088302611a267fffffffffffffffffffffffffffffffffffffffffffffffffffffffffffffffff826119e9565b611a3086836119e9565b95508019841693508086168417925050509392505050565b6000611a63611a5e611a5984610eb8565b61105d565b610eb8565b9050919050565b6000819050919050565b611a7d83611a48565b611a91611a8982611a6a565b8484546119f6565b825550505050565b600090565b611aa6611a99565b611ab1818484611a74565b505050565b5b81811015611ad557611aca600082611a9e565b600181019050611ab7565b5050565b601f821115611b1a57611aeb816119c4565b611af4846119d9565b81016020851015611b03578190505b611b17611b0f856119d9565b830182611ab6565b50505b505050565b600082821c905092915050565b6000611b3d60001984600802611b1f565b1980831691505092915050565b6000611b568383611b2c565b9150826002028217905092915050565b611b6f82610f1b565b67ffffffffffffffff811115611b8857611b87611329565b5b611b9282546116e7565b611b9d828285611ad9565b600060209050601f831160018114611bd05760008415611bbe578287015190505b611bc88582611b4a565b865550611c30565b601f198416611bde866119c4565b60005b82811015611c0657848901518255600182019150602085019450602081019050611be1565b86831015611c235784890151611c1f601f891682611b2c565b8355505b6001600288020188555050505b505050505050565b6000611c4382610eb8565b9150611c4e83610eb8565b9250828203905081811115611c6657611c65611618565b5b92915050565b6000608082019050611c816000830187610fab565b8181036020830152611c938186610f72565b90508181036040830152611ca78185610f72565b9050611cb660608301846114e7565b95945050505050565b600081519050611cce81610ec2565b92915050565b600060208284031215611cea57611ce9610eae565b5b6000611cf884828501611cbf565b91505092915050565b7f4e6f20746f6b656e7320746f2077697468647261770000000000000000000000600082015250565b6000611d37601583610f26565b9150611d4282611d01565b602082019050919050565b60006020820190508181036000830152611d6681611d2a565b9050919050565b6000604082019050611d8260008301856114e7565b611d8f6020830184610fab565b9392505050565b7f5769746864726177616c206661696c6564000000000000000000000000000000600082015250565b6000611dcc601183610f26565b9150611dd782611d96565b602082019050919050565b60006020820190508181036000830152611dfb81611dbf565b905091905056fea264697066735822122081fb57bb1a10e078ef0aa3374e9b6359b3883a049d46a02ef426a8712d41532764736f6c63430008180033",
  "linkReferences": {},
  "deployedLinkReferences": {}
}